S00C0000335F305F2E73726563F7
S11300000C9434000C9451000C9451000C94510045
S11300100C9451000C9451000C9451000C94510018
S11300200C9451000C9451000C9451000C94510008
S11300300C9451000C9482000C9451000C945100C7
S11300400C9451000C9451000C9451000C945100E8
S11300500C9451000C9451000C9451000C945100D8
S11300600C9451000C94510011241FBECFEFD8E022
S1130070DEBFCDBF11E0A0E0B1E0ECEAF9E002C0E0
S113008005900D92A233B107D9F721E0A2E3B1E0C4
S113009001C01D92AC33B207E1F70E9415010C9424
S11300A0D4040C9400008091000190910101181671
S11300B0190634F425E02A95F1F700000197D1F7E9
S11300C008951092840010928500E1E8F0E08081A8
S11300D081608083EFE6F0E0808181608083089511
S11300E025B1FC01EA5FFE4F90819F70207F292B90
S11300F025B99BB18081282F207F892F8F70822B77
S11301008BB908951F920F920FB60F921124EF929C
S1130110FF920F931F932F933F934F935F936F938C
S11301207F938F939F93AF93BF93CF93DF93EF937B
S1130130FF9325B10F2EF4E0EF2EF1E0FF2EF02D0A
S1130140C1E0D0E0CE01F701008002C0880F991F02
S11301500A94E2F7822785B925B102E011E0CE01C5
S1130160F801008002C0880F991F0A94E2F78227E1
S113017085B980913401909135010E9470000E94EC
S1130180530025B1CE01F701008002C0880F991FEA
S11301900A94E2F7822785B985B1F801008002C08C
S11301A0CC0FDD1F0A94E2F7C827C5B9809132014C
S11301B0909133010E9470000E94530010928500B8
S11301C010928400B09AFF91EF91DF91CF91BF918B
S11301D0AF919F918F917F916F915F914F913F91DB
S11301E02F911F910F91FF90EF900F900FBE0F90E2
S11301F01F90189580E480937C0087E880937A00B0
S11302000895ECE7F0E09081987F8770892B8083D4
S1130210EAE7F0E0808180648083808186FDFDCF01
S11302208091780090917900089584B18FEF84B91A
S11302309AB18AB925B181E090E00090040102C02E
S1130240880F991F0A94E2F7822B85B90E946100F6
S113025078940E94FA000F2E88248A94F3E09F2E4B
S1130260A12CB12CF02D0F2EFAE0EF2EF12CF02D55
S113027000E111E080E00E940101C82FD92F282F4E
S1130280392FA3E6B0E00E94B101A50194010E94B8
S11302909201822F932FB7010E947E017093350142
S11302A06093340190933301809332013F932F93F1
S11302B0DF93CF931F930F930E94F6018091340133
S11302C0909135010E9470000E9453008091320188
S11302D0909133010E9470000E9453002FEF81EE31
S11302E094E0215080409040E1F700C000000F905E
S11302F00F900F900F900F900F90BCCF97FB072E8D
S113030016F4009407D077FD09D00E94C00107FCC1
S113031005D03EF4909581959F4F08957095619511
S11303207F4F0895052E97FB1EF400940E94A901A7
S113033057FD07D00E94D40107FC03D04EF40C945F
S1130340A90150954095309521953F4F4F4F5F4FF0
S1130350089590958095709561957F4F8F4F9F4F2D
S11303600895A29FB001B39FC001A39F700D811D8A
S11303701124911DB29F700D811D1124911D0895AA
S1130380AA1BBB1B51E107C0AA1FBB1FA617B707B7
S113039010F0A61BB70B881F991F5A95A9F78095D3
S11303A09095BC01CD010895A1E21A2EAA1BBB1B96
S11303B0FD010DC0AA1FBB1FEE1FFF1FA217B3072D
S11303C0E407F50720F0A21BB30BE40BF50B661F43
S11303D0771F881F991F1A9469F760957095809507
S11303E090959B01AC01BD01CF010895A0E0B0E060
S11303F0ECEFF1E00C94AD04AE014B5F5F4FFA01FA
S113040061917191AF0180913801909139010E94FD
S11304100C02E2E00C94C904ABE0B0E0E2E1F2E0EB
S11304200C949D046C017B018A01FC0117821682E5
S1130430838181FFCCC1CE0101963C01F6019381F9
S1130440F70193FD859193FF81917F01882309F43E
S1130450BAC1853239F493FD859193FF81917F016F
S1130460853229F4B60190E00E940304E7CF912C71
S1130470212C312CFFE1F315D8F08B3279F038F4CC
S1130480803279F08332A1F4232D20611DC08D3296
S113049061F0803369F4232D216016C0832D8260BE
S11304A0382EE32DE4603E2E2AC0F32DF8601DC0E3
S11304B037FC2DC020ED280F2A3040F08E32B9F4DD
S11304C036FC81C1232D2064322E19C036FE06C0AD
S11304D08AE0989E200D1124922E11C0EAE02E9EEF
S11304E0200D1124222EF32DF0623F2E08C08C36ED
S11304F021F4832D8068382E02C0883641F4F70138
S113050093FD859193FF81917F018111B3CF982F42
S11305109F7D9554933028F40C5F1F4F9FE399837C
S11305200DC0833631F0833771F0833509F059C03B
S113053021C0F801808189830E5F1F4F8824839432
S1130540912C530113C02801F2E04F0E511CF80105
S1130550A080B18036FE03C0692D70E002C06FEF49
S11305607FEFC5010E94F8034C018201F32DFF7750
S11305703F2E16C0280122E0420E511CF801A08033
S1130580B18036FE03C0692D70E002C06FEF7FEFCB
S1130590C5010E94ED034C01F32DF0683F2E82014A
S11305A033FC1BC0822D90E088169906B0F4B60186
S11305B080E290E00E9403042A94F4CFF50137FC12
S11305C0859137FE81915F01B60190E00E9403049A
S11305D021102A9421E0821A91088114910471F760
S11305E0E8C0843611F0893641F5F80137FE07C0BA
S11305F060817181828193810C5F1F4F08C060818B
S11306007181072E000C880B990B0E5F1F4FF32D81
S1130610FF763F2E97FF09C0909580957095619560
S11306207F4F8F4F9F4FF0683F2E2AE030E0A301A9
S11306300E943F04882E861845C0853731F4232D47
S11306402F7EB22E2AE030E025C0932D997FB92E5B
S11306508F36C1F018F4883579F0B5C0803719F0B9
S1130660883721F0B0C0E92FE061BE2EB4FE0DC082
S1130670FB2DF460BF2E09C034FE0AC0292F26606A
S1130680B22E06C028E030E005C020E130E002C010
S113069020E132E0F801B7FE07C0608171818281F8
S11306A093810C5F1F4F06C06081718180E090E0F0
S11306B00E5F1F4FA3010E943F04882E8618FB2D56
S11306C0FF773F2E36FE0DC0232D2E7FA22E8914D8
S11306D058F434FE0BC032FC09C0832D8E7EA82E44
S11306E005C0B82CA32C03C0B82C01C0B92CA4FE9F
S11306F00FC0FE01E80DF11D8081803321F49A2D95
S1130700997EA92E09C0A2FE06C0B394B39404C076
S11307108A2D867809F0B394A3FC11C0A0FE06C00C
S1130720B21488F4280C922C9B180EC0B21460F4F6
S1130730B60180E290E00E940304B394F7CFB214B0
S113074018F42B1802C0982C212CA4FE10C0B6015A
S113075080E390E00E940304A2FE17C0A1FC03C042
S113076088E790E002C088E590E0B6010CC08A2DCD
S1130770867859F0A1FE02C08BE201C080E2A7FC9A
S11307808DE2B60190E00E940304891438F4B601A6
S113079080E390E00E9403049A94F7CF8A94F301D3
S11307A0E80DF11D8081B60190E00E9403048110E0
S11307B0F5CF222009F442CEB60180E290E00E94F7
S11307C003042A94F6CFF6018681978102C08FEF45
S11307D09FEF2B96E2E10C94B904FC010590615063
S11307E070400110D8F7809590958E0F9F1F089543
S11307F0FC016150704001900110D8F780959095EC
S11308008E0F9F1F08950F931F93CF93DF93FB01C8
S1130810238121FD03C08FEF9FEF2CC022FF16C060
S113082046815781248135814217530744F4A081BE
S1130830B1819D012F5F3F4F318320838C932681AB
S113084037812F5F3F4F3783268314C08B01EC0120
S1130850FB010084F185E02D0995892BE1F6D8018F
S113086016968D919C911797019617969C938E934B
S11308701697CE01DF91CF911F910F910895FA0140
S1130880AA27283051F1203181F1E8946F936E7FCB
S11308906E5F7F4F8F4F9F4FAF4FB1E03ED0B4E0BC
S11308A03CD0670F781F891F9A1FA11D680F791FFD
S11308B08A1F911DA11D6A0F711D811D911DA11D0E
S11308C020D009F468943F912AE0269F112430191E
S11308D0305D3193DEF6CF010895462F4770405DB9
S11308E04193B3E00FD0C9F7F6CF462F4F70405D68
S11308F04A3318F0495D31FD4052419302D0A9F7C3
S1130900EACFB4E0A6959795879577956795BA95BC
S1130910C9F700976105710508959B01AC010A2E82
S113092006945795479537952795BA95C9F7620F59
S1130930731F841F951FA01D08952F923F924F92FD
S11309405F926F927F928F929F92AF92BF92CF925B
S1130950DF92EF92FF920F931F93CF93DF93CDB764
S1130960DEB7CA1BDB0B0FB6F894DEBF0FBECDBFDC
S113097009942A88398848885F846E847D848C84AD
S11309809B84AA84B984C884DF80EE80FD800C81B6
S11309901B81AA81B981CE0FD11D0FB6F894DEBF99
S10F09A00FBECDBFED010895F894FFCF09
S11309ACF401050004003F065B4F666D7D077F670D
S11309BC4144432056616C75653A2025642C204DC6
S11309CC617070656420436F756E743A2025640AF7
S10509DC000015
S9030000FC
