S00C000065785F322E73726563AA
S11300000C9434000C9451000C9451000C94510045
S11300100C9451000C9451000C9451000C94510018
S11300200C9451000C9451000C9451000C94510008
S11300300C9451000C9482000C9451000C945100C7
S11300400C9451000C9451000C9451000C945100E8
S11300500C9451000C9451000C9451000C945100D8
S11300600C9451000C94510011241FBECFEFD8E022
S1130070DEBFCDBF11E0A0E0B1E0EEE5F2E002C0EA
S113008005900D92A031B107D9F721E0A0E1B1E0CC
S113009001C01D92A431B207E1F70E94F7000C944D
S11300A02D010C940000809100019091010118161B
S11300B0190634F425E02A95F1F700000197D1F7E9
S11300C008951092840010928500E1E8F0E08081A8
S11300D081608083EFE6F0E0808181608083089511
S11300E025B1FC01EA5FFE4F90819F70207F292B90
S11300F025B99BB18081282F207F892F8F70822B77
S11301008BB908951F920F920FB60F921124EF929C
S1130110FF920F931F932F933F934F935F936F938C
S11301207F938F939F93AF93BF93CF93DF93EF937B
S1130130FF9325B10F2EF4E0EF2EF1E0FF2EF02D0A
S1130140C1E0D0E0CE01F701008002C0880F991F02
S11301500A94E2F7822785B925B102E011E0CE01C5
S1130160F801008002C0880F991F0A94E2F78227E1
S113017085B980911201909113010E9470000E9430
S1130180530025B1CE01F701008002C0880F991FEA
S11301900A94E2F7822785B985B1F801008002C08C
S11301A0CC0FDD1F0A94E2F7C827C5B9809110016E
S11301B0909111010E9470000E9453000E946100FE
S11301C0FF91EF91DF91CF91BF91AF919F918F916B
S11301D07F916F915F914F913F912F911F910F915B
S11301E0FF90EF900F900FBE0F901F90189584B161
S11301F08FEF84B99AB18AB925B181E090E000907B
S1130200040102C0880F991F0A94E2F7822B85B972
S11302100E946100789480E090E049E050E08A30E8
S1130220910564F490931301809312019A01281BA1
S1130230390B309311012093100101968A309105F6
S113024011F480E090E02FEF39E668E1215030406E
S11102506040E1F700C00000E2CFF894FFCF59
S113025EF401050004003F065B4F666D7D077F6762
S9030000FC
