:100000000C942A000C943F000C943F000C943F0089
:100010000C943F000C943F000C943F000C943F0064
:100020000C943F000C943F000C943F000C943F0054
:100030000C943F000C943F000C943F000C943F0044
:100040000C943F000C943F000C943F000C943F0034
:100050000C943F0011241FBECFE5D8E0DEBFCDBF1A
:1000600010E0A0E6B0E0E2EBF0E002C005900D92F7
:10007000AA36B107D9F70E9441000C9457000C949E
:1000800000008AB38FEF8ABB29E630E0E0E6F0E0BB
:1000900081918BBB4FEF89E698E1415080409040C1
:1000A000E1F700C00000E217F30791F7EFCFF894F3
:0200B000FFCF80
:0A00B2003F065B4F666D7D077F6F10
:00000001FF
