:100000000C942A000C9447000C9447000C94470071
:100010000C9447000C9447000C9447000C94470044
:100020000C9447000C9447000C9447000C94470034
:100030000C9447000C9447000C9447000C94470024
:100040000C9447000C9447000C9447000C94470014
:100050000C94470011241FBECFE5D8E0DEBFCDBF12
:1000600010E0A0E6B0E0EEE3F1E002C005900D92F2
:10007000AA36B107D9F720E0AAE6B0E001C01D9288
:10008000AE36B207E1F70E9454000C949D000C9428
:1000900000008FE582BF81E083BF08B600FEFDCF80
:1000A00013BE81E088BF089584B38FEF84BB91B302
:1000B00081BB909A919A09E610E0C0E6D0E01092D8
:1000C0006B0010926A00888185BB82B38C7F82BBF3
:1000D0000E944900919A0E94490015BAE0916C0073
:1000E000F0916D00E05AFF4F808182BB90980E9492
:1000F0004900909A15BA0E94490080916A00909137
:100100006B00019690936B0080936A008A36984149
:10011000D4F221960C171D0791F680916C009091F6
:100120006D00019690936D0080936C000A972CF2FD
:0E01300010926D0010926C00C0CFF894FFCFBB
:0A013E003F065B4F666D7D077F678B
:00000001FF
